{
  "_format": "hh-sol-artifact-1",
  "contractName": "Crowdfunding",
  "sourceName": "contracts/Crowdfunding.sol",
  "abi": [
    {
      "inputs": [],
      "stateMutability": "nonpayable",
      "type": "constructor"
    },
    {
      "anonymous": false,
      "inputs": [
        {
          "indexed": true,
          "internalType": "uint256",
          "name": "campaignId",
          "type": "uint256"
        },
        {
          "indexed": true,
          "internalType": "address",
          "name": "creator",
          "type": "address"
        }
      ],
      "name": "CampaignCancelled",
      "type": "event"
    },
    {
      "anonymous": false,
      "inputs": [
        {
          "indexed": true,
          "internalType": "uint256",
          "name": "campaignId",
          "type": "uint256"
        },
        {
          "indexed": true,
          "internalType": "address",
          "name": "creator",
          "type": "address"
        },
        {
          "indexed": false,
          "internalType": "uint256",
          "name": "goal",
          "type": "uint256"
        },
        {
          "indexed": false,
          "internalType": "uint256",
          "name": "deadline",
          "type": "uint256"
        }
      ],
      "name": "CampaignCreated",
      "type": "event"
    },
    {
      "anonymous": false,
      "inputs": [
        {
          "indexed": true,
          "internalType": "uint256",
          "name": "campaignId",
          "type": "uint256"
        },
        {
          "indexed": true,
          "internalType": "address",
          "name": "contributor",
          "type": "address"
        },
        {
          "indexed": false,
          "internalType": "uint256",
          "name": "amount",
          "type": "uint256"
        }
      ],
      "name": "ContributionCompleted",
      "type": "event"
    },
    {
      "anonymous": false,
      "inputs": [
        {
          "indexed": true,
          "internalType": "uint256",
          "name": "campaignId",
          "type": "uint256"
        },
        {
          "indexed": true,
          "internalType": "address",
          "name": "to",
          "type": "address"
        },
        {
          "indexed": false,
          "internalType": "uint256",
          "name": "amount",
          "type": "uint256"
        }
      ],
      "name": "RefundCompleted",
      "type": "event"
    },
    {
      "anonymous": false,
      "inputs": [
        {
          "indexed": true,
          "internalType": "uint256",
          "name": "campaignId",
          "type": "uint256"
        },
        {
          "indexed": true,
          "internalType": "address",
          "name": "to",
          "type": "address"
        },
        {
          "indexed": false,
          "internalType": "uint256",
          "name": "amount",
          "type": "uint256"
        }
      ],
      "name": "WithdrawCompleted",
      "type": "event"
    },
    {
      "inputs": [
        {
          "internalType": "uint256",
          "name": "_campaignId",
          "type": "uint256"
        }
      ],
      "name": "cancelCampaign",
      "outputs": [],
      "stateMutability": "nonpayable",
      "type": "function"
    },
    {
      "inputs": [
        {
          "internalType": "uint256",
          "name": "_campaignId",
          "type": "uint256"
        }
      ],
      "name": "contribute",
      "outputs": [],
      "stateMutability": "payable",
      "type": "function"
    },
    {
      "inputs": [
        {
          "internalType": "string",
          "name": "_title",
          "type": "string"
        },
        {
          "internalType": "string",
          "name": "_description",
          "type": "string"
        },
        {
          "internalType": "uint256",
          "name": "_deadline",
          "type": "uint256"
        },
        {
          "internalType": "uint256",
          "name": "_goal",
          "type": "uint256"
        },
        {
          "internalType": "string",
          "name": "_imageURL",
          "type": "string"
        }
      ],
      "name": "createCampaign",
      "outputs": [],
      "stateMutability": "nonpayable",
      "type": "function"
    },
    {
      "inputs": [
        {
          "internalType": "uint256",
          "name": "_campaignId",
          "type": "uint256"
        }
      ],
      "name": "getCampaign",
      "outputs": [
        {
          "components": [
            {
              "internalType": "uint256",
              "name": "id",
              "type": "uint256"
            },
            {
              "internalType": "address",
              "name": "creator",
              "type": "address"
            },
            {
              "internalType": "string",
              "name": "title",
              "type": "string"
            },
            {
              "internalType": "string",
              "name": "description",
              "type": "string"
            },
            {
              "internalType": "uint256",
              "name": "goal",
              "type": "uint256"
            },
            {
              "internalType": "uint256",
              "name": "deadline",
              "type": "uint256"
            },
            {
              "internalType": "string",
              "name": "imageURL",
              "type": "string"
            },
            {
              "internalType": "uint256",
              "name": "raisedAmount",
              "type": "uint256"
            },
            {
              "internalType": "enum Crowdfunding.State",
              "name": "state",
              "type": "uint8"
            },
            {
              "internalType": "address[]",
              "name": "contributors",
              "type": "address[]"
            }
          ],
          "internalType": "struct Crowdfunding.Campaign",
          "name": "",
          "type": "tuple"
        }
      ],
      "stateMutability": "view",
      "type": "function"
    },
    {
      "inputs": [
        {
          "internalType": "uint256",
          "name": "_page",
          "type": "uint256"
        },
        {
          "internalType": "uint256",
          "name": "_pageSize",
          "type": "uint256"
        }
      ],
      "name": "getCampaigns",
      "outputs": [
        {
          "components": [
            {
              "internalType": "uint256",
              "name": "id",
              "type": "uint256"
            },
            {
              "internalType": "address",
              "name": "creator",
              "type": "address"
            },
            {
              "internalType": "string",
              "name": "title",
              "type": "string"
            },
            {
              "internalType": "string",
              "name": "description",
              "type": "string"
            },
            {
              "internalType": "uint256",
              "name": "goal",
              "type": "uint256"
            },
            {
              "internalType": "uint256",
              "name": "deadline",
              "type": "uint256"
            },
            {
              "internalType": "string",
              "name": "imageURL",
              "type": "string"
            },
            {
              "internalType": "uint256",
              "name": "raisedAmount",
              "type": "uint256"
            },
            {
              "internalType": "enum Crowdfunding.State",
              "name": "state",
              "type": "uint8"
            },
            {
              "internalType": "address[]",
              "name": "contributors",
              "type": "address[]"
            }
          ],
          "internalType": "struct Crowdfunding.Campaign[]",
          "name": "",
          "type": "tuple[]"
        }
      ],
      "stateMutability": "view",
      "type": "function"
    },
    {
      "inputs": [],
      "name": "getCampaigns",
      "outputs": [
        {
          "components": [
            {
              "internalType": "uint256",
              "name": "id",
              "type": "uint256"
            },
            {
              "internalType": "address",
              "name": "creator",
              "type": "address"
            },
            {
              "internalType": "string",
              "name": "title",
              "type": "string"
            },
            {
              "internalType": "string",
              "name": "description",
              "type": "string"
            },
            {
              "internalType": "uint256",
              "name": "goal",
              "type": "uint256"
            },
            {
              "internalType": "uint256",
              "name": "deadline",
              "type": "uint256"
            },
            {
              "internalType": "string",
              "name": "imageURL",
              "type": "string"
            },
            {
              "internalType": "uint256",
              "name": "raisedAmount",
              "type": "uint256"
            },
            {
              "internalType": "enum Crowdfunding.State",
              "name": "state",
              "type": "uint8"
            },
            {
              "internalType": "address[]",
              "name": "contributors",
              "type": "address[]"
            }
          ],
          "internalType": "struct Crowdfunding.Campaign[]",
          "name": "",
          "type": "tuple[]"
        }
      ],
      "stateMutability": "view",
      "type": "function"
    },
    {
      "inputs": [],
      "name": "getContributedCampaigns",
      "outputs": [
        {
          "components": [
            {
              "internalType": "uint256",
              "name": "campaignId",
              "type": "uint256"
            },
            {
              "internalType": "uint256",
              "name": "amount",
              "type": "uint256"
            }
          ],
          "internalType": "struct Crowdfunding.Contribution[]",
          "name": "",
          "type": "tuple[]"
        }
      ],
      "stateMutability": "view",
      "type": "function"
    },
    {
      "inputs": [
        {
          "internalType": "uint256",
          "name": "_campaignId",
          "type": "uint256"
        }
      ],
      "name": "getContributors",
      "outputs": [
        {
          "internalType": "address[]",
          "name": "",
          "type": "address[]"
        }
      ],
      "stateMutability": "view",
      "type": "function"
    },
    {
      "inputs": [],
      "name": "getCreatedCampaigns",
      "outputs": [
        {
          "components": [
            {
              "internalType": "uint256",
              "name": "id",
              "type": "uint256"
            },
            {
              "internalType": "address",
              "name": "creator",
              "type": "address"
            },
            {
              "internalType": "string",
              "name": "title",
              "type": "string"
            },
            {
              "internalType": "string",
              "name": "description",
              "type": "string"
            },
            {
              "internalType": "uint256",
              "name": "goal",
              "type": "uint256"
            },
            {
              "internalType": "uint256",
              "name": "deadline",
              "type": "uint256"
            },
            {
              "internalType": "string",
              "name": "imageURL",
              "type": "string"
            },
            {
              "internalType": "uint256",
              "name": "raisedAmount",
              "type": "uint256"
            },
            {
              "internalType": "enum Crowdfunding.State",
              "name": "state",
              "type": "uint8"
            },
            {
              "internalType": "address[]",
              "name": "contributors",
              "type": "address[]"
            }
          ],
          "internalType": "struct Crowdfunding.Campaign[]",
          "name": "",
          "type": "tuple[]"
        }
      ],
      "stateMutability": "view",
      "type": "function"
    },
    {
      "inputs": [],
      "name": "getFunctionSignature",
      "outputs": [
        {
          "internalType": "bytes4",
          "name": "",
          "type": "bytes4"
        }
      ],
      "stateMutability": "pure",
      "type": "function"
    },
    {
      "inputs": [
        {
          "internalType": "uint256",
          "name": "_campaignId",
          "type": "uint256"
        }
      ],
      "name": "requestRefund",
      "outputs": [],
      "stateMutability": "nonpayable",
      "type": "function"
    },
    {
      "inputs": [
        {
          "internalType": "uint256",
          "name": "_campaignId",
          "type": "uint256"
        }
      ],
      "name": "requestWithdraw",
      "outputs": [],
      "stateMutability": "nonpayable",
      "type": "function"
    }
  ],
  "bytecode": "0x608060405234801561001057600080fd5b50336000806101000a81548173ffffffffffffffffffffffffffffffffffffffff021916908373ffffffffffffffffffffffffffffffffffffffff160217905550613f71806100606000396000f3fe6080604052600436106100a75760003560e01c8063745400c911610064578063745400c9146101e2578063a4b2409e1461020b578063a6b0363314610234578063a77201b61461025f578063c1cbbca71461028a578063d4e3dd6f146102a6576100a7565b806309051566146100ac5780633c1ab00f146100e957806345598b4a146101265780634bb523d01461014f5780635598f8cc1461017a5780635808b2e2146101b7575b600080fd5b3480156100b857600080fd5b506100d360048036038101906100ce9190612b38565b6102cf565b6040516100e09190612f2f565b60405180910390f35b3480156100f557600080fd5b50610110600480360381019061010b9190612f51565b610731565b60405161011d9190612fed565b60405180910390f35b34801561013257600080fd5b5061014d60048036038101906101489190612f51565b6107e4565b005b34801561015b57600080fd5b506101646109d2565b60405161017191906130ed565b60405180910390f35b34801561018657600080fd5b506101a1600480360381019061019c9190612f51565b610bca565b6040516101ae91906131fe565b60405180910390f35b3480156101c357600080fd5b506101cc610f48565b6040516101d99190612f2f565b60405180910390f35b3480156101ee57600080fd5b5061020960048036038101906102049190612f51565b6112e5565b005b34801561021757600080fd5b50610232600480360381019061022d9190612f51565b6113cb565b005b34801561024057600080fd5b50610249611426565b6040516102569190612f2f565b60405180910390f35b34801561026b57600080fd5b506102746117ed565b604051610281919061325b565b60405180910390f35b6102a4600480360381019061029f9190612f51565b6117fc565b005b3480156102b257600080fd5b506102cd60048036038101906102c891906133ab565b611ca2565b005b6060600082846102df91906134a9565b90506001548110610325576040517f08c379a000000000000000000000000000000000000000000000000000000000815260040161031c90613548565b60405180910390fd5b600060015484836103369190613568565b1161034c5783826103479190613568565b610350565b6001545b905060008282610360919061359c565b67ffffffffffffffff81111561037957610378613280565b5b6040519080825280602002602001820160405280156103b257816020015b61039f6129b2565b8152602001906001900390816103975790505b50905060008390505b8281101561072457600281815481106103d7576103d66135d0565b5b90600052602060002090600a020160405180610140016040529081600082015481526020016001820160009054906101000a900473ffffffffffffffffffffffffffffffffffffffff1673ffffffffffffffffffffffffffffffffffffffff1673ffffffffffffffffffffffffffffffffffffffff1681526020016002820180546104619061362e565b80601f016020809104026020016040519081016040528092919081815260200182805461048d9061362e565b80156104da5780601f106104af576101008083540402835291602001916104da565b820191906000526020600020905b8154815290600101906020018083116104bd57829003601f168201915b505050505081526020016003820180546104f39061362e565b80601f016020809104026020016040519081016040528092919081815260200182805461051f9061362e565b801561056c5780601f106105415761010080835404028352916020019161056c565b820191906000526020600020905b81548152906001019060200180831161054f57829003601f168201915b5050505050815260200160048201548152602001600582015481526020016006820180546105999061362e565b80601f01602080910402602001604051908101604052809291908181526020018280546105c59061362e565b80156106125780601f106105e757610100808354040283529160200191610612565b820191906000526020600020905b8154815290600101906020018083116105f557829003601f168201915b50505050508152602001600782015481526020016008820160009054906101000a900460ff16600381111561064a57610649612c84565b5b600381111561065c5761065b612c84565b5b8152602001600982018054806020026020016040519081016040528092919081815260200182805480156106e557602002820191906000526020600020905b8160009054906101000a900473ffffffffffffffffffffffffffffffffffffffff1673ffffffffffffffffffffffffffffffffffffffff168152602001906001019080831161069b575b5050505050815250508285836106fb919061359c565b8151811061070c5761070b6135d0565b5b602002602001018190525080806001019150506103bb565b5080935050505092915050565b606060028281548110610747576107466135d0565b5b90600052602060002090600a02016009018054806020026020016040519081016040528092919081815260200182805480156107d857602002820191906000526020600020905b8160009054906101000a900473ffffffffffffffffffffffffffffffffffffffff1673ffffffffffffffffffffffffffffffffffffffff168152602001906001019080831161078e575b50505050509050919050565b80600281815481106107f9576107f86135d0565b5b90600052602060002090600a020160010160009054906101000a900473ffffffffffffffffffffffffffffffffffffffff1673ffffffffffffffffffffffffffffffffffffffff163373ffffffffffffffffffffffffffffffffffffffff1614610898576040517f08c379a000000000000000000000000000000000000000000000000000000000815260040161088f906136d1565b60405180910390fd5b81600060038111156108ad576108ac612c84565b5b600282815481106108c1576108c06135d0565b5b90600052602060002090600a020160080160009054906101000a900460ff1660038111156108f2576108f1612c84565b5b14610932576040517f08c379a00000000000000000000000000000000000000000000000000000000081526004016109299061373d565b60405180910390fd5b61093b8361221a565b600160028481548110610951576109506135d0565b5b90600052602060002090600a020160080160006101000a81548160ff0219169083600381111561098457610983612c84565b5b02179055503373ffffffffffffffffffffffffffffffffffffffff16837f844c792f3d122ddfe76f9173cd5b48de3087f78395e0f62b94f9d471c991dcb260405160405180910390a3505050565b60606000600360003373ffffffffffffffffffffffffffffffffffffffff1673ffffffffffffffffffffffffffffffffffffffff1681526020019081526020016000206002018054905067ffffffffffffffff811115610a3557610a34613280565b5b604051908082528060200260200182016040528015610a6e57816020015b610a5b612a2d565b815260200190600190039081610a535790505b50905060005b600360003373ffffffffffffffffffffffffffffffffffffffff1673ffffffffffffffffffffffffffffffffffffffff16815260200190815260200160002060020180549050811015610bc2576000600360003373ffffffffffffffffffffffffffffffffffffffff1673ffffffffffffffffffffffffffffffffffffffff1681526020019081526020016000206002018281548110610b1757610b166135d0565b5b90600052602060002001549050600360003373ffffffffffffffffffffffffffffffffffffffff1673ffffffffffffffffffffffffffffffffffffffff168152602001908152602001600020600001600082815260200190815260200160002060405180604001604052908160008201548152602001600182015481525050838381518110610ba957610ba86135d0565b5b6020026020010181905250508080600101915050610a74565b508091505090565b610bd26129b2565b6001548210610c16576040517f08c379a0000000000000000000000000000000000000000000000000000000008152600401610c0d906137a9565b60405180910390fd5b60028281548110610c2a57610c296135d0565b5b90600052602060002090600a020160405180610140016040529081600082015481526020016001820160009054906101000a900473ffffffffffffffffffffffffffffffffffffffff1673ffffffffffffffffffffffffffffffffffffffff1673ffffffffffffffffffffffffffffffffffffffff168152602001600282018054610cb49061362e565b80601f0160208091040260200160405190810160405280929190818152602001828054610ce09061362e565b8015610d2d5780601f10610d0257610100808354040283529160200191610d2d565b820191906000526020600020905b815481529060010190602001808311610d1057829003601f168201915b50505050508152602001600382018054610d469061362e565b80601f0160208091040260200160405190810160405280929190818152602001828054610d729061362e565b8015610dbf5780601f10610d9457610100808354040283529160200191610dbf565b820191906000526020600020905b815481529060010190602001808311610da257829003601f168201915b505050505081526020016004820154815260200160058201548152602001600682018054610dec9061362e565b80601f0160208091040260200160405190810160405280929190818152602001828054610e189061362e565b8015610e655780601f10610e3a57610100808354040283529160200191610e65565b820191906000526020600020905b815481529060010190602001808311610e4857829003601f168201915b50505050508152602001600782015481526020016008820160009054906101000a900460ff166003811115610e9d57610e9c612c84565b5b6003811115610eaf57610eae612c84565b5b815260200160098201805480602002602001604051908101604052809291908181526020018280548015610f3857602002820191906000526020600020905b8160009054906101000a900473ffffffffffffffffffffffffffffffffffffffff1673ffffffffffffffffffffffffffffffffffffffff1681526020019060010190808311610eee575b5050505050815250509050919050565b6060600360003373ffffffffffffffffffffffffffffffffffffffff1673ffffffffffffffffffffffffffffffffffffffff168152602001908152602001600020600101805480602002602001604051908101604052809291908181526020016000905b828210156112dc57838290600052602060002090600a020160405180610140016040529081600082015481526020016001820160009054906101000a900473ffffffffffffffffffffffffffffffffffffffff1673ffffffffffffffffffffffffffffffffffffffff1673ffffffffffffffffffffffffffffffffffffffff1681526020016002820180546110409061362e565b80601f016020809104026020016040519081016040528092919081815260200182805461106c9061362e565b80156110b95780601f1061108e576101008083540402835291602001916110b9565b820191906000526020600020905b81548152906001019060200180831161109c57829003601f168201915b505050505081526020016003820180546110d29061362e565b80601f01602080910402602001604051908101604052809291908181526020018280546110fe9061362e565b801561114b5780601f106111205761010080835404028352916020019161114b565b820191906000526020600020905b81548152906001019060200180831161112e57829003601f168201915b5050505050815260200160048201548152602001600582015481526020016006820180546111789061362e565b80601f01602080910402602001604051908101604052809291908181526020018280546111a49061362e565b80156111f15780601f106111c6576101008083540402835291602001916111f1565b820191906000526020600020905b8154815290600101906020018083116111d457829003601f168201915b50505050508152602001600782015481526020016008820160009054906101000a900460ff16600381111561122957611228612c84565b5b600381111561123b5761123a612c84565b5b8152602001600982018054806020026020016040519081016040528092919081815260200182805480156112c457602002820191906000526020600020905b8160009054906101000a900473ffffffffffffffffffffffffffffffffffffffff1673ffffffffffffffffffffffffffffffffffffffff168152602001906001019080831161127a575b50505050508152505081526020019060010190610fac565b50505050905090565b600281815481106112f9576112f86135d0565b5b90600052602060002090600a0201600401546002828154811061131f5761131e6135d0565b5b90600052602060002090600a0201600701541015611372576040517f08c379a000000000000000000000000000000000000000000000000000000000815260040161136990613815565b60405180910390fd5b61137b816122cf565b60028082815481106113905761138f6135d0565b5b90600052602060002090600a020160080160006101000a81548160ff021916908360038111156113c3576113c2612c84565b5b021790555050565b6113d581336124f1565b6003600282815481106113eb576113ea6135d0565b5b90600052602060002090600a020160080160006101000a81548160ff0219169083600381111561141e5761141d612c84565b5b021790555050565b6060600060015467ffffffffffffffff81111561144657611445613280565b5b60405190808252806020026020018201604052801561147f57816020015b61146c6129b2565b8152602001906001900390816114645790505b50905060005b6001548110156117e557600281815481106114a3576114a26135d0565b5b90600052602060002090600a020160405180610140016040529081600082015481526020016001820160009054906101000a900473ffffffffffffffffffffffffffffffffffffffff1673ffffffffffffffffffffffffffffffffffffffff1673ffffffffffffffffffffffffffffffffffffffff16815260200160028201805461152d9061362e565b80601f01602080910402602001604051908101604052809291908181526020018280546115599061362e565b80156115a65780601f1061157b576101008083540402835291602001916115a6565b820191906000526020600020905b81548152906001019060200180831161158957829003601f168201915b505050505081526020016003820180546115bf9061362e565b80601f01602080910402602001604051908101604052809291908181526020018280546115eb9061362e565b80156116385780601f1061160d57610100808354040283529160200191611638565b820191906000526020600020905b81548152906001019060200180831161161b57829003601f168201915b5050505050815260200160048201548152602001600582015481526020016006820180546116659061362e565b80601f01602080910402602001604051908101604052809291908181526020018280546116919061362e565b80156116de5780601f106116b3576101008083540402835291602001916116de565b820191906000526020600020905b8154815290600101906020018083116116c157829003601f168201915b50505050508152602001600782015481526020016008820160009054906101000a900460ff16600381111561171657611715612c84565b5b600381111561172857611727612c84565b5b8152602001600982018054806020026020016040519081016040528092919081815260200182805480156117b157602002820191906000526020600020905b8160009054906101000a900473ffffffffffffffffffffffffffffffffffffffff1673ffffffffffffffffffffffffffffffffffffffff1681526020019060010190808311611767575b5050505050815250508282815181106117cd576117cc6135d0565b5b60200260200101819052508080600101915050611485565b508091505090565b600063d4e3dd6f60e01b905090565b806040518060600160405280602e8152602001613f0e602e91396002828154811061182a576118296135d0565b5b90600052602060002090600a020160010160009054906101000a900473ffffffffffffffffffffffffffffffffffffffff1673ffffffffffffffffffffffffffffffffffffffff163373ffffffffffffffffffffffffffffffffffffffff16141581906118cd576040517f08c379a00000000000000000000000000000000000000000000000000000000081526004016118c4919061386e565b60405180910390fd5b5082600281815481106118e3576118e26135d0565b5b90600052602060002090600a0201600501544210611936576040517f08c379a000000000000000000000000000000000000000000000000000000000815260040161192d906138dc565b60405180910390fd5b836000600381111561194b5761194a612c84565b5b6002828154811061195f5761195e6135d0565b5b90600052602060002090600a020160080160009054906101000a900460ff1660038111156119905761198f612c84565b5b146119d0576040517f08c379a00000000000000000000000000000000000000000000000000000000081526004016119c79061373d565b60405180910390fd5b34600286815481106119e5576119e46135d0565b5b90600052602060002090600a02016007016000828254611a059190613568565b925050819055506000600360003373ffffffffffffffffffffffffffffffffffffffff1673ffffffffffffffffffffffffffffffffffffffff1681526020019081526020016000206000016000878152602001908152602001600020600101541115611add5734600360003373ffffffffffffffffffffffffffffffffffffffff1673ffffffffffffffffffffffffffffffffffffffff16815260200190815260200160002060000160008781526020019081526020016000206001016000828254611ad19190613568565b92505081905550611bc6565b604051806040016040528086815260200134815250600360003373ffffffffffffffffffffffffffffffffffffffff1673ffffffffffffffffffffffffffffffffffffffff16815260200190815260200160002060000160008781526020019081526020016000206000820151816000015560208201518160010155905050600360003373ffffffffffffffffffffffffffffffffffffffff1673ffffffffffffffffffffffffffffffffffffffff1681526020019081526020016000206002018590806001815401808255809150506001900390600052602060002001600090919091909150555b60028581548110611bda57611bd96135d0565b5b90600052602060002090600a0201600901339080600181540180825580915050600190039060005260206000200160009091909190916101000a81548173ffffffffffffffffffffffffffffffffffffffff021916908373ffffffffffffffffffffffffffffffffffffffff1602179055503373ffffffffffffffffffffffffffffffffffffffff16857f0849cd5e0ac788a08c63793e37086d81c09a41c3194b6fd32e9d2a287018e18634604051611c93919061390b565b60405180910390a35050505050565b6000855111611ce6576040517f08c379a0000000000000000000000000000000000000000000000000000000008152600401611cdd90613972565b60405180910390fd5b6000845111611d2a576040517f08c379a0000000000000000000000000000000000000000000000000000000008152600401611d21906139de565b60405180910390fd5b428311611d6c576040517f08c379a0000000000000000000000000000000000000000000000000000000008152600401611d6390613a4a565b60405180910390fd5b60008211611daf576040517f08c379a0000000000000000000000000000000000000000000000000000000008152600401611da690613ab6565b60405180910390fd5b611db76129b2565b6001548160000181815250506001806000828254611dd59190613568565b9250508190555033816020019073ffffffffffffffffffffffffffffffffffffffff16908173ffffffffffffffffffffffffffffffffffffffff168152505085816040018190525084816060018190525082816080018181525050838160a00181815250506000825111611e7e576040518060400160405280601c81526020017f55524c206f6620612064656661756c7420706c616365686f6c64657200000000815250611e80565b815b8160c0018190525060008160e001818152505060008161010001906003811115611ead57611eac612c84565b5b90816003811115611ec157611ec0612c84565b5b81525050600067ffffffffffffffff811115611ee057611edf613280565b5b604051908082528060200260200182016040528015611f0e5781602001602082028036833780820191505090505b5081610120018190525060028190806001815401808255809150506001900390600052602060002090600a02016000909190919091506000820151816000015560208201518160010160006101000a81548173ffffffffffffffffffffffffffffffffffffffff021916908373ffffffffffffffffffffffffffffffffffffffff1602179055506040820151816002019081611faa9190613c82565b506060820151816003019081611fc09190613c82565b506080820151816004015560a0820151816005015560c0820151816006019081611fea9190613c82565b5060e082015181600701556101008201518160080160006101000a81548160ff0219169083600381111561202157612020612c84565b5b0217905550610120820151816009019080519060200190612043929190612a47565b505050600360003373ffffffffffffffffffffffffffffffffffffffff1673ffffffffffffffffffffffffffffffffffffffff1681526020019081526020016000206001018190806001815401808255809150506001900390600052602060002090600a02016000909190919091506000820151816000015560208201518160010160006101000a81548173ffffffffffffffffffffffffffffffffffffffff021916908373ffffffffffffffffffffffffffffffffffffffff16021790555060408201518160020190816121189190613c82565b50606082015181600301908161212e9190613c82565b506080820151816004015560a0820151816005015560c08201518160060190816121589190613c82565b5060e082015181600701556101008201518160080160006101000a81548160ff0219169083600381111561218f5761218e612c84565b5b02179055506101208201518160090190805190602001906121b1929190612a47565b5050503373ffffffffffffffffffffffffffffffffffffffff16600180546121d9919061359c565b7f91b289a829e71d811b8c69e4a24ba2d40d115d8a236e9a724cb3bb2d43cf7223858760405161220a929190613d54565b60405180910390a3505050505050565b60005b60028281548110612231576122306135d0565b5b90600052602060002090600a0201600901805490508110156122cb57600060028381548110612263576122626135d0565b5b90600052602060002090600a02016009018281548110612286576122856135d0565b5b9060005260206000200160009054906101000a900473ffffffffffffffffffffffffffffffffffffffff1690506122bd83826124f1565b50808060010191505061221d565b5050565b80600281815481106122e4576122e36135d0565b5b90600052602060002090600a020160010160009054906101000a900473ffffffffffffffffffffffffffffffffffffffff1673ffffffffffffffffffffffffffffffffffffffff163373ffffffffffffffffffffffffffffffffffffffff1614612383576040517f08c379a000000000000000000000000000000000000000000000000000000000815260040161237a906136d1565b60405180910390fd5b816000600381111561239857612397612c84565b5b600282815481106123ac576123ab6135d0565b5b90600052602060002090600a020160080160009054906101000a900460ff1660038111156123dd576123dc612c84565b5b1461241d576040517f08c379a00000000000000000000000000000000000000000000000000000000081526004016124149061373d565b60405180910390fd5b600060028481548110612433576124326135d0565b5b90600052602060002090600a020160010160009054906101000a900473ffffffffffffffffffffffffffffffffffffffff16905060006002858154811061247d5761247c6135d0565b5b90600052602060002090600a020160070154905061249b8282612937565b8173ffffffffffffffffffffffffffffffffffffffff16857fb023730be5ff651829a63ab0341ed32a3ac028c8b793309ee0bf2bba75df3311836040516124e2919061390b565b60405180910390a35050505050565b816000600381111561250657612505612c84565b5b6002828154811061251a576125196135d0565b5b90600052602060002090600a020160080160009054906101000a900460ff16600381111561254b5761254a612c84565b5b1461258b576040517f08c379a00000000000000000000000000000000000000000000000000000000081526004016125829061373d565b60405180910390fd5b826040518060400160405280601d81526020017f43726561746f722063616e6e6f74207265717565737420726566756e64000000815250600282815481106125d6576125d56135d0565b5b90600052602060002090600a020160010160009054906101000a900473ffffffffffffffffffffffffffffffffffffffff1673ffffffffffffffffffffffffffffffffffffffff163373ffffffffffffffffffffffffffffffffffffffff1614158190612679576040517f08c379a0000000000000000000000000000000000000000000000000000000008152600401612670919061386e565b60405180910390fd5b506002858154811061268e5761268d6135d0565b5b90600052602060002090600a020160050154421180156126f75750600285815481106126bd576126bc6135d0565b5b90600052602060002090600a020160040154600286815481106126e3576126e26135d0565b5b90600052602060002090600a020160070154105b612736576040517f08c379a000000000000000000000000000000000000000000000000000000000815260040161272d90613e3b565b60405180910390fd5b6000600360003373ffffffffffffffffffffffffffffffffffffffff1673ffffffffffffffffffffffffffffffffffffffff168152602001908152602001600020600001600087815260200190815260200160002060010154116127cf576040517f08c379a00000000000000000000000000000000000000000000000000000000081526004016127c690613ea7565b60405180910390fd5b61282f84600360003373ffffffffffffffffffffffffffffffffffffffff1673ffffffffffffffffffffffffffffffffffffffff168152602001908152602001600020600001600088815260200190815260200160002060010154612937565b8373ffffffffffffffffffffffffffffffffffffffff16857fe9293e781f3df57090ec4606a6db4dd511ccab25f92cb4b01434765f7af2dd90600360003373ffffffffffffffffffffffffffffffffffffffff1673ffffffffffffffffffffffffffffffffffffffff1681526020019081526020016000206000016000898152602001908152602001600020600101546040516128cc919061390b565b60405180910390a36000600360003373ffffffffffffffffffffffffffffffffffffffff1673ffffffffffffffffffffffffffffffffffffffff1681526020019081526020016000206000016000878152602001908152602001600020600101819055505050505050565b60008273ffffffffffffffffffffffffffffffffffffffff168260405161295d90613ef8565b60006040518083038185875af1925050503d806000811461299a576040519150601f19603f3d011682016040523d82523d6000602084013e61299f565b606091505b50509050806129ad57600080fd5b505050565b60405180610140016040528060008152602001600073ffffffffffffffffffffffffffffffffffffffff16815260200160608152602001606081526020016000815260200160008152602001606081526020016000815260200160006003811115612a2057612a1f612c84565b5b8152602001606081525090565b604051806040016040528060008152602001600081525090565b828054828255906000526020600020908101928215612ac0579160200282015b82811115612abf5782518260006101000a81548173ffffffffffffffffffffffffffffffffffffffff021916908373ffffffffffffffffffffffffffffffffffffffff16021790555091602001919060010190612a67565b5b509050612acd9190612ad1565b5090565b5b80821115612aea576000816000905550600101612ad2565b5090565b6000604051905090565b600080fd5b600080fd5b6000819050919050565b612b1581612b02565b8114612b2057600080fd5b50565b600081359050612b3281612b0c565b92915050565b60008060408385031215612b4f57612b4e612af8565b5b6000612b5d85828601612b23565b9250506020612b6e85828601612b23565b9150509250929050565b600081519050919050565b600082825260208201905092915050565b6000819050602082019050919050565b612bad81612b02565b82525050565b600073ffffffffffffffffffffffffffffffffffffffff82169050919050565b6000612bde82612bb3565b9050919050565b612bee81612bd3565b82525050565b600081519050919050565b600082825260208201905092915050565b60005b83811015612c2e578082015181840152602081019050612c13565b60008484015250505050565b6000601f19601f8301169050919050565b6000612c5682612bf4565b612c608185612bff565b9350612c70818560208601612c10565b612c7981612c3a565b840191505092915050565b7f4e487b7100000000000000000000000000000000000000000000000000000000600052602160045260246000fd5b60048110612cc457612cc3612c84565b5b50565b6000819050612cd582612cb3565b919050565b6000612ce582612cc7565b9050919050565b612cf581612cda565b82525050565b600081519050919050565b600082825260208201905092915050565b6000819050602082019050919050565b6000612d338383612be5565b60208301905092915050565b6000602082019050919050565b6000612d5782612cfb565b612d618185612d06565b9350612d6c83612d17565b8060005b83811015612d9d578151612d848882612d27565b9750612d8f83612d3f565b925050600181019050612d70565b5085935050505092915050565b600061014083016000830151612dc36000860182612ba4565b506020830151612dd66020860182612be5565b5060408301518482036040860152612dee8282612c4b565b91505060608301518482036060860152612e088282612c4b565b9150506080830151612e1d6080860182612ba4565b5060a0830151612e3060a0860182612ba4565b5060c083015184820360c0860152612e488282612c4b565b91505060e0830151612e5d60e0860182612ba4565b50610100830151612e72610100860182612cec565b50610120830151848203610120860152612e8c8282612d4c565b9150508091505092915050565b6000612ea58383612daa565b905092915050565b6000602082019050919050565b6000612ec582612b78565b612ecf8185612b83565b935083602082028501612ee185612b94565b8060005b85811015612f1d5784840389528151612efe8582612e99565b9450612f0983612ead565b925060208a01995050600181019050612ee5565b50829750879550505050505092915050565b60006020820190508181036000830152612f498184612eba565b905092915050565b600060208284031215612f6757612f66612af8565b5b6000612f7584828501612b23565b91505092915050565b600082825260208201905092915050565b6000612f9a82612cfb565b612fa48185612f7e565b9350612faf83612d17565b8060005b83811015612fe0578151612fc78882612d27565b9750612fd283612d3f565b925050600181019050612fb3565b5085935050505092915050565b600060208201905081810360008301526130078184612f8f565b905092915050565b600081519050919050565b600082825260208201905092915050565b6000819050602082019050919050565b6040820160008201516130516000850182612ba4565b5060208201516130646020850182612ba4565b50505050565b6000613076838361303b565b60408301905092915050565b6000602082019050919050565b600061309a8261300f565b6130a4818561301a565b93506130af8361302b565b8060005b838110156130e05781516130c7888261306a565b97506130d283613082565b9250506001810190506130b3565b5085935050505092915050565b60006020820190508181036000830152613107818461308f565b905092915050565b6000610140830160008301516131286000860182612ba4565b50602083015161313b6020860182612be5565b50604083015184820360408601526131538282612c4b565b9150506060830151848203606086015261316d8282612c4b565b91505060808301516131826080860182612ba4565b5060a083015161319560a0860182612ba4565b5060c083015184820360c08601526131ad8282612c4b565b91505060e08301516131c260e0860182612ba4565b506101008301516131d7610100860182612cec565b506101208301518482036101208601526131f18282612d4c565b9150508091505092915050565b60006020820190508181036000830152613218818461310f565b905092915050565b60007fffffffff0000000000000000000000000000000000000000000000000000000082169050919050565b61325581613220565b82525050565b6000602082019050613270600083018461324c565b92915050565b600080fd5b600080fd5b7f4e487b7100000000000000000000000000000000000000000000000000000000600052604160045260246000fd5b6132b882612c3a565b810181811067ffffffffffffffff821117156132d7576132d6613280565b5b80604052505050565b60006132ea612aee565b90506132f682826132af565b919050565b600067ffffffffffffffff82111561331657613315613280565b5b61331f82612c3a565b9050602081019050919050565b82818337600083830152505050565b600061334e613349846132fb565b6132e0565b90508281526020810184848401111561336a5761336961327b565b5b61337584828561332c565b509392505050565b600082601f83011261339257613391613276565b5b81356133a284826020860161333b565b91505092915050565b600080600080600060a086880312156133c7576133c6612af8565b5b600086013567ffffffffffffffff8111156133e5576133e4612afd565b5b6133f18882890161337d565b955050602086013567ffffffffffffffff81111561341257613411612afd565b5b61341e8882890161337d565b945050604061342f88828901612b23565b935050606061344088828901612b23565b925050608086013567ffffffffffffffff81111561346157613460612afd565b5b61346d8882890161337d565b9150509295509295909350565b7f4e487b7100000000000000000000000000000000000000000000000000000000600052601160045260246000fd5b60006134b482612b02565b91506134bf83612b02565b92508282026134cd81612b02565b915082820484148315176134e4576134e361347a565b5b5092915050565b600082825260208201905092915050565b7f496e76616c69642070616765206e756d62657200000000000000000000000000600082015250565b60006135326013836134eb565b915061353d826134fc565b602082019050919050565b6000602082019050818103600083015261356181613525565b9050919050565b600061357382612b02565b915061357e83612b02565b92508282019050808211156135965761359561347a565b5b92915050565b60006135a782612b02565b91506135b283612b02565b92508282039050818111156135ca576135c961347a565b5b92915050565b7f4e487b7100000000000000000000000000000000000000000000000000000000600052603260045260246000fd5b7f4e487b7100000000000000000000000000000000000000000000000000000000600052602260045260246000fd5b6000600282049050600182168061364657607f821691505b602082108103613659576136586135ff565b5b50919050565b7f4f6e6c792063616d706169676e2063726561746f722063616e2063616c6c207460008201527f6869732066756e6374696f6e0000000000000000000000000000000000000000602082015250565b60006136bb602c836134eb565b91506136c68261365f565b604082019050919050565b600060208201905081810360008301526136ea816136ae565b9050919050565b7f43616d706169676e206973206e6f74206f70656e000000000000000000000000600082015250565b60006137276014836134eb565b9150613732826136f1565b602082019050919050565b600060208201905081810360008301526137568161371a565b9050919050565b7f496e76616c69642063616d706169676e20696e64657800000000000000000000600082015250565b60006137936016836134eb565b915061379e8261375d565b602082019050919050565b600060208201905081810360008301526137c281613786565b9050919050565b7f43616d706169676e20646964206e6f742072656163682069747320676f616c00600082015250565b60006137ff601f836134eb565b915061380a826137c9565b602082019050919050565b6000602082019050818103600083015261382e816137f2565b9050919050565b600061384082612bf4565b61384a81856134eb565b935061385a818560208601612c10565b61386381612c3a565b840191505092915050565b600060208201905081810360008301526138888184613835565b905092915050565b7f43616d706169676e20646561646c696e65206861732070617373656400000000600082015250565b60006138c6601c836134eb565b91506138d182613890565b602082019050919050565b600060208201905081810360008301526138f5816138b9565b9050919050565b61390581612b02565b82525050565b600060208201905061392060008301846138fc565b92915050565b7f5469746c652063616e6e6f7420626520656d7074790000000000000000000000600082015250565b600061395c6015836134eb565b915061396782613926565b602082019050919050565b6000602082019050818103600083015261398b8161394f565b9050919050565b7f4465736372697074696f6e2063616e6e6f7420626520656d7074790000000000600082015250565b60006139c8601b836134eb565b91506139d382613992565b602082019050919050565b600060208201905081810360008301526139f7816139bb565b9050919050565b7f446561646c696e65206d75737420626520696e20746865206675747572650000600082015250565b6000613a34601e836134eb565b9150613a3f826139fe565b602082019050919050565b60006020820190508181036000830152613a6381613a27565b9050919050565b7f46756e64696e6720676f616c2063616e6e6f74206265207a65726f0000000000600082015250565b6000613aa0601b836134eb565b9150613aab82613a6a565b602082019050919050565b60006020820190508181036000830152613acf81613a93565b9050919050565b60008190508160005260206000209050919050565b60006020601f8301049050919050565b600082821b905092915050565b600060088302613b387fffffffffffffffffffffffffffffffffffffffffffffffffffffffffffffffff82613afb565b613b428683613afb565b95508019841693508086168417925050509392505050565b6000819050919050565b6000613b7f613b7a613b7584612b02565b613b5a565b612b02565b9050919050565b6000819050919050565b613b9983613b64565b613bad613ba582613b86565b848454613b08565b825550505050565b600090565b613bc2613bb5565b613bcd818484613b90565b505050565b5b81811015613bf157613be6600082613bba565b600181019050613bd3565b5050565b601f821115613c3657613c0781613ad6565b613c1084613aeb565b81016020851015613c1f578190505b613c33613c2b85613aeb565b830182613bd2565b50505b505050565b600082821c905092915050565b6000613c5960001984600802613c3b565b1980831691505092915050565b6000613c728383613c48565b9150826002028217905092915050565b613c8b82612bf4565b67ffffffffffffffff811115613ca457613ca3613280565b5b613cae825461362e565b613cb9828285613bf5565b600060209050601f831160018114613cec5760008415613cda578287015190505b613ce48582613c66565b865550613d4c565b601f198416613cfa86613ad6565b60005b82811015613d2257848901518255600182019150602085019450602081019050613cfd565b86831015613d3f5784890151613d3b601f891682613c48565b8355505b6001600288020188555050505b505050505050565b6000604082019050613d6960008301856138fc565b613d7660208301846138fc565b9392505050565b7f43616d706169676e20646561646c696e6520686173206e6f742070617373656460008201527f206f72207468652063616d706169676e206973207375636365737366756c3b2060208201527f696e2065697468657220636173652c20796f752063616e6e6f7420776974686460408201527f7261770000000000000000000000000000000000000000000000000000000000606082015250565b6000613e256063836134eb565b9150613e3082613d7d565b608082019050919050565b60006020820190508181036000830152613e5481613e18565b9050919050565b7f4e6f7468696e6720746f20626520726566756e64656400000000000000000000600082015250565b6000613e916016836134eb565b9150613e9c82613e5b565b602082019050919050565b60006020820190508181036000830152613ec081613e84565b9050919050565b600081905092915050565b50565b6000613ee2600083613ec7565b9150613eed82613ed2565b600082019050919050565b6000613f0382613ed5565b915081905091905056fe43726561746f722063616e206e6f7420636f6e7472696275746520746f20697473206f776e2063616d706169676ea264697066735822122094f630fbad808096b59169a79ddb957fcc067b866cbdb414bf8e373c93cfd8a164736f6c63430008180033",
  "linkReferences": {},
  "deployedLinkReferences": {}
}